{
  "contractName": "Greetings",
  "abi": [
    {
      "inputs": [
        {
          "internalType": "string",
          "name": "_message",
          "type": "string"
        }
      ],
      "stateMutability": "nonpayable",
      "type": "constructor"
    },
    {
      "inputs": [
        {
          "internalType": "string",
          "name": "_message",
          "type": "string"
        }
      ],
      "name": "write",
      "outputs": [],
      "stateMutability": "nonpayable",
      "type": "function"
    },
    {
      "inputs": [],
      "name": "read",
      "outputs": [
        {
          "internalType": "string",
          "name": "",
          "type": "string"
        }
      ],
      "stateMutability": "view",
      "type": "function",
      "constant": true
    }
  ],
  "bytecode": "0x608060405234801561001057600080fd5b506040516104db3803806104db8339818101604052602081101561003357600080fd5b810190808051604051939291908464010000000082111561005357600080fd5b8382019150602082018581111561006957600080fd5b825186600182028301116401000000008211171561008657600080fd5b8083526020830192505050908051906020019080838360005b838110156100ba57808201518184015260208101905061009f565b50505050905090810190601f1680156100e75780820380516001836020036101000a031916815260200191505b50604052505050806000908051906020019061010492919061010b565b50506101b6565b828054600181600116156101000203166002900490600052602060002090601f0160209004810192826101415760008555610188565b82601f1061015a57805160ff1916838001178555610188565b82800160010185558215610188579182015b8281111561018757825182559160200191906001019061016c565b5b5090506101959190610199565b5090565b5b808211156101b257600081600090555060010161019a565b5090565b610316806101c56000396000f3fe608060405234801561001057600080fd5b50600436106100365760003560e01c806357de26a41461003b578063ebaac771146100be575b600080fd5b610043610179565b6040518080602001828103825283818151815260200191508051906020019080838360005b83811015610083578082015181840152602081019050610068565b50505050905090810190601f1680156100b05780820380516001836020036101000a031916815260200191505b509250505060405180910390f35b610177600480360360208110156100d457600080fd5b81019080803590602001906401000000008111156100f157600080fd5b82018360208201111561010357600080fd5b8035906020019184600183028401116401000000008311171561012557600080fd5b91908080601f016020809104026020016040519081016040528093929190818152602001838380828437600081840152601f19601f82011690508083019250505050505050919291929050505061021b565b005b606060008054600181600116156101000203166002900480601f0160208091040260200160405190810160405280929190818152602001828054600181600116156101000203166002900480156102115780601f106101e657610100808354040283529160200191610211565b820191906000526020600020905b8154815290600101906020018083116101f457829003601f168201915b5050505050905090565b8060009080519060200190610231929190610235565b5050565b828054600181600116156101000203166002900490600052602060002090601f01602090048101928261026b57600085556102b2565b82601f1061028457805160ff19168380011785556102b2565b828001600101855582156102b2579182015b828111156102b1578251825591602001919060010190610296565b5b5090506102bf91906102c3565b5090565b5b808211156102dc5760008160009055506001016102c4565b509056fea26469706673582212207eb42dba6ff3775febaa247cc67d48cf1502d3b218df7cf42ff570b591dd687964736f6c63430007060033",
  "immutableReferences": {},
  "source": "// SPDX-License-Identifier: MIT\npragma solidity ^0.7.4;\n\ncontract Greetings {\n  string message;\n\n  constructor(string memory _message) {\n      message = _message;\n  }\n\n  function write(string memory _message) public {\n    message = _message;\n  }\n\n  function read() public view returns (string memory) {\n    return message;\n  }\n}\n",
  "sourcePath": "/Users/sandyinstructor/Documents/👩🏽‍💻BLOCKCHAIN/Alyra/truffle-box/truffle-box-react-redux/contracts/Greetings.sol",
  "compiler": {
    "name": "solc",
    "version": "0.7.6+commit.7338295f.Emscripten.clang"
  },
  "schemaVersion": "3.3.4",
  "updatedAt": "2021-03-20T11:09:22.532Z",
  "networkType": "ethereum",
  "devdoc": {
    "kind": "dev",
    "methods": {},
    "version": 1
  },
  "userdoc": {
    "kind": "user",
    "methods": {},
    "version": 1
  }
}